:100000000C94EC040C9433050C9433050C943305D8
:100010000C9433050C9433050C9433050C94330580
:100020000C9433050C9433050C94CC1F0C949F2036
:100030000C94D9160C9433050C9433050C943305A9
:100040000C9433050C9433050C9433050C94330550
:100050000C9433050C943A170C9433050C94330527
:100060000C9433050C9433050C9433050C94330530
:100070000C9433050C9433050C9433050C94330520
:100080000C9433050C9433050C9433050C94330510
:100090000C9433050C9433050C9433050C94330500
:1000A0000C9433050C9433050C94330529001E0081
:1000B0001F0020002100220023002400250026002C
:1000C0002700A9002B0014001A00080015001700D3
:1000D0001C0018000C0012001300AA0039000400D4
:1000E0001600070009000A000B000D000E000F00AB
:1000F00033003400E1001D001B000600190005005C
:10010000110010003600370052003800E000E20015
:10011000E30000004C002C00000028002A005000E2
:1001200051004F0001003A003B003C003D003E0002
:100130003F004000410042004300440035020100FE
:10014000010001001508010001000100010001008B
:100150004600450001000100010007080100010000
:10016000010001002F0230020100310201000100F4
:100170000100010001000100010001002F0030001A
:100180004B003100010001000100000001000100EE
:100190000000281101004A004E004D00010001003E
:1001A000010001000100010001005F00600061002A
:1001B0000100010035000100010001000100010003
:1001C00001005C005D005E00010001000100010013
:1001D0000100010001000100010059005A005B000C
:1001E0000100010001000100010001000100010007
:1001F0000100010062006300010001000100010034
:1002000001000000010001000000010001000100E8
:1002100001000100010001000100010001000100D6
:1002200001000100010001000100010001000100C6
:1002300001000100010001000100010001000100B6
:1002400001000100010001000100010001000100A6
:100250000100010001000100010001000100010096
:100260000100010001000100010001000100010086
:100270000100010001000100010000000100010077
:100280000000010001000100010001000100010067
:100290000100010001000100010001000100010056
:1002A0000100010001000100010001000100010046
:1002B0000100010001000100010001000100010036
:1002C0000100010001000100010001000100010026
:1002D0000100010001000100010001000100010016
:1002E0000100010001000100010001000100010006
:1002F00001000000010001000000010001000100F8
:1003000001000100010001000100010001000100E5
:1003100001000100010001000100010001000100D5
:1003200001000100010001000100010001000100C5
:1003300001000100010001000100010001000100B5
:1003400001000100010001000100010001000100A5
:100350000100010001000100010001000100010095
:100360000100010001000100010000000100010086
:100370000000010001000100010001000100010076
:100380000100010001000100010001000100010065
:100390000100010001000100010001000100010055
:1003A0000100010001000100010001000100010045
:1003B0000100010001000100010001000100010035
:1003C0000100010001000100010001000100010025
:1003D0000100010001000100010001000100010015
:1003E0000100000001000100000001000100010007
:1003F00001000100010001000100010001000100F5
:1004000001000100010001000100010001000100E4
:1004100001000100010001000100010001000100D4
:1004200001000100010001000100010001000100C4
:1004300001000100010001000100010001000100B4
:1004400001000100010001000100010001000100A4
:100450000100010001000100010000000100010095
:100460000000010001000100010001000100010085
:100470000100010001000100010001000100010074
:100480000100010001000100010001000100010064
:100490000100010001000100010001000100010054
:1004A0000100010001000100010001000100010044
:1004B0000100010001000100010001000100010034
:1004C0000100010001000100010001000100010024
:1004D0000100000001000100000001000100010016
:1004E0000100010001000100010001000100010004
:1004F00001000100010001000100010001000100F4
:1005000001000100010001000100010001000100E3
:1005100001000100010001000100010001000100D3
:1005200001000100010001000100010001000100C3
:1005300001000100010001000100010001000100B3
:1005400001000100010001000100000001000100A4
:100550000000010001000100010001000100010094
:100560000100010001000100010001000100010083
:100570000100010001000100010001000100010073
:100580000100010001000100010001000100010063
:100590000100010001000100010001000100010053
:1005A0000100010001000100010001000100010043
:1005B0000100010001000100010001000100010033
:1005C0000100000001000100000001000100010025
:1005D0000100010001000100010001000100010013
:1005E0000100010001000100010001000100010003
:1005F00001000100010001000100010001000100F3
:1006000001000100010001000100010001000100E2
:1006100001000100010001000100010001000100D2
:1006200001000100010001000100010001000100C2
:1006300001000100010001000100000001000100B3
:1006400000000100010001000100010001000100A3
:100650000100010001000100010001000100010092
:100660000100010001000100010001000100010082
:100670000100010001000100010001000100010072
:100680000100010001000100010001000100010062
:100690000100010001000100010001000100010052
:1006A0000100010001000100010001000100010042
:1006B0000100000001000100000001000100010034
:1006C0000100010001000100010001000100010022
:1006D0000100010001000100010001000100010012
:1006E0000100010001000100010001000100010002
:1006F00001000100010001000100010001000100F2
:1007000001000100010001000100010001000100E1
:1007100001000100010001000100010001000100D1
:1007200001000100010001000100000001000100C2
:1007300000000100010001000100010001000100B2
:1007400001000100010001000100010001000100A1
:100750000100010001000100010001000100010091
:100760000100010001000100010001000100010081
:100770000100010001000100010001000100010071
:100780000100010001000100010001000100010061
:100790000100010001000100010001000100010051
:1007A0000100000001000100000001000100010043
:1007B0000100010001000100010001000100010031
:1007C0000100010001000100010001000100010021
:1007D0000100010001000100010001000100010011
:1007E0000100010001000100010001000100010001
:1007F00001000100010001000100010001000100F1
:1008000001000100010001000100010001000100E0
:1008100001000100010001000100000001000100D1
:1008200000000100010001000100010012036B0043
:100830006500790062006F006100720064000000D2
:10084000160371006D006B006200750069006C009A
:1008500064006500720000000403090409026D00D1
:10086000040100A0FA0904000001030101000921AC
:10087000110100012240000705810308000A090454
:1008800001000103010200092111010001224D00B4
:100890000705820308000A090402000103000000A2
:1008A0000921110100012236000705830308000A0F
:1008B00009040300010300000009211101000122C5
:1008C0003900070584032000011201100100000017
:1008D00008EDFE606001000102000105010906A1AA
:1008E00001050719E029E715002501950875018123
:1008F00002050819012905950575019102950175F3
:100900000391010507190029F71500250195F875D0
:10091000018102C005010980A1018502160100269E
:1009200003001A81002A8300751095018100C0051B
:100930000C0901A1018503160100269C021A010081
:100940002A9C02751095018100C005010902A101D0
:100950000901A100050919012905150025019505C1
:100960007501810295017503810105010930093185
:100970001581257F95027508810609381581257F27
:10098000950175088106050C0A38021581257F95A9
:100990000175088106C0C005010906A101050719F6
:1009A000E029E7150025019508750181029501757B
:1009B0000881010508190129059505750191029520
:1009C00001750391010507190029FF150026FF0095
:1009D000950675088100C00011241FBECFEFDAE034
:1009E000DEBFCDBF04B603FE27C0809140029091C8
:1009F0004102A0914202B09143028730904BA74040
:100A0000B04BD1F410924002109241021092420277
:100A10001092430214BE84B7877F84BF0FB6F89448
:100A2000A8958091600088618093600010926000BA
:100A30000FBEE0E0F8E3099511E0A0E0B1E0E8E1E5
:100A4000F8E402C005900D92A833B107D9F722E06F
:100A5000A8E3B1E001C01D92A034B207E1F70E9403
:100A6000221D0C94DE230C94000090E080E0089599
:100A70000895089581E0089581FF03C0849A8C98B9
:100A800008958498FCCF81E008950C943A050E9463
:100A90002A0F2FEF84E39CE0215080409040E1F743
:100AA00000C000000C945D17EF92FF920F931F930C
:100AB000CF93DF938C01FC01E080F1808091720183
:100AC000811140C082818823C1F1C7010E94AF1407
:100AD000C82F682FC7010E945814B7018C2F0E949D
:100AE0008C06EC01B8010E944505882309F44BC02F
:100AF000B801CE010E949508882309F444C0C5318D
:100B0000F0E7DF0720F5C23080E7D80708F04DC0D6
:100B1000C115E0E7DE0791F1C130D047E1F181E096
:100B200080933A0180933B01C801DF91CF911F91DF
:100B30000F91FF90EF900C944305C7010E9486141B
:100B4000C82FCBCFC7010E94AF14B701C8CFCC3399
:100B500080E7D80709F49BC0CD33D04701F7F801EF
:100B60008281882309F4BAC010923B010E940917C0
:100B7000909339018093380180E296C0F801828118
:100B800081110E94470580E0DF91CF911F910F9165
:100B9000FF90EF900895F80182818823A1F380915E
:100BA0000002816080930002EECFF80182818823E9
:100BB00009F4BACF0E946A16811102C00E94501631
:100BC0000E94871690E09093320280933102FE01DA
:100BD000E350F047809131028160E231F10538F451
:100BE000E052FC4D0C948E23809131028260809300
:100BF0003102809131020E948B160E942A0FC3CFCE
:100C0000809131028460F3CF809131028860EFCF10
:100C1000809131028061EBCF809131028062E7CF19
:100C2000809131028064E3CF809131028068DFCF10
:100C3000809131028C60DBCF809131028E7FD7CFE3
:100C4000809131028D7FD3CF809131028B7FCFCFC6
:100C500080913102877FCBCF809131028F7EC7CFC9
:100C6000809131028F7DC3CF809131028F7BBFCFC6
:100C7000809131028F77BBCF80913102837FB7CFD4
:100C800090913102892F97FB87F98058B0CFF801F6
:100C90008281882361F010923A010E940917909393
:100CA00039018093380182E00E948F0C6CCF8091D3
:100CB0003A0181110FC080913801909139010E9451
:100CC0001517883C910530F486E20E94640B86E299
:100CD0000E94400C82E00E94960C55CF80913B010F
:100CE00081110FC080913801909139010E94151730
:100CF000883C910530F487E20E94640B87E20E94F1
:100D0000400C80E2E8CF0C94E4080C94E6080C94C4
:100D10003C050C9487060895972F70E02CE0929F75
:100D2000600D711D1124FB019CE3899FE00DF11DF5
:100D30001124EE0FFF1FE455FF4F85919491089504
:100D4000FC01EE0FFF1FE45DF74F8591949108952C
:100D50000E948C060E9419089C01811540E49407AA
:100D600008F097C0211580E3380708F0FAC0203E4C
:100D7000310508F074C0203C310508F0E5C0283A80
:100D8000310588F4253A310508F0E2C021303105FB
:100D900009F477C0C9010497813A910508F471C03C
:100DA00030E020E06EC0C901885A91094597C0F72C
:100DB000283A310509F4FEC0293A310509F4FDC08D
:100DC0002A3A310509F4FCC02B3A310509F4FBC07D
:100DD0002C3A310509F4FAC02B3B310509F4F9C06E
:100DE0002C3B310509F4F8C02D3A310509F4F7C060
:100DF000203B310509F4F6C02E3A310509F4F5C05F
:100E00002F3A310509F4F4C0213B310509F4F3C050
:100E1000223B310509F4F2C0233B310509F4F1C04E
:100E2000243B310509F4F0C0253B310509F4EFC03E
:100E3000263B310509F4EEC0273B310509F4EDC02E
:100E4000283B310509F4ECC0293B310509F4EBC01E
:100E50002A3B310509F4EAC020E034E412C0211530
:100E600090E2390780F42F3F310509F050F4283E15
:100E7000310538F0C901805F91093065409708F06D
:100E80008FCFC9010895C9019F700E94A0069C01DF
:100E9000F8CF8115944508F041C0211583E5380746
:100EA00008F06AC0211592E5390738F5211541E5AA
:100EB000340708F05CC0211580E5380708F454C0F9
:100EC000C90134E0969587953A95E1F78370422FF2
:100ED00046954695437090E2499FA0011124582BF6
:100EE000822F837021E030E002C0220F331F8A95E9
:100EF000E2F7242B352B3C68C4CFC90183709927B6
:100F000041E050E002C0440F551F8A95E2F7269554
:100F1000269580E2289F90011124EBCF211596E5BC
:100F2000390748F4922F882721153545C8F59C01CB
:100F3000246F306AA6CFC90190563F708115904149
:100F400008F02ECF30629DCFC901805C91099DCF02
:100F5000253A310549F1263A310549F522E830E4D0
:100F600090CF3327306C8DCF3F70306A8ACF322FCD
:100F70002227216F306A85CFC9018370992741E00C
:100F800050E002C0440F551F8A95E2F7269526953A
:100F900080E2289F90011124242B352B3A6871CFD1
:100FA00088279F719C01CECF21E830E46ACF23E8E7
:100FB00030E467CF22EE34E464CF29EE34E461CF2D
:100FC0002AEE34E45ECF25EB34E45BCF26EB34E449
:100FD00058CF23EB34E455CF24EB34E452CF27EB46
:100FE00034E44FCF2CEC34E44CCF2DEC34E449CF37
:100FF00023E835E446CF2AE835E443CF22E935E457
:1010000040CF24E935E43DCF21E236E43ACF23E274
:1010100036E437CF24E236E434CF25E236E431CF6C
:1010200026E236E42ECF27E236E42BCF2AE236E45E
:1010300028CF803E910581F1C8F48133910509F4F0
:1010400062C048F48932910509F456C08A3291058C
:1010500009F460C0089589339105B9F0823891058B
:10106000A1F08533910509F440C00895863E9105AD
:1010700061F138F4823E9105B1F0833E9105E1F0D3
:101080000895873E910551F1089520913102237012
:10109000D9F080EE90E008952091310220FF14C035
:1010A00089E390E008952091310222FF0DC024FDD4
:1010B00009C083EE90E008952091310222FD31C0F5
:1010C00024FF02C090E080E008952091310223FFC8
:1010D000FBCF24FDF7CF87EE90E0089520913102F9
:1010E00023FFEECF86EE90E008952091310225FF98
:1010F000EBCF89E290E008952091310225FFE4CF03
:1011000085E390E008952091310226FFDDCF8AE249
:1011100090E008952091310226FFD6CF81E390E040
:10112000089582EE90E0089508950F931F93CF9352
:101130008C01FB018281811106C0C1E08C2FCF910F
:101140001F910F910895C0914901C11125C005312A
:10115000104799F70E94940881E0809349010E940A
:101160000917909348018093470110923C01109217
:101170003E0110923D011092400110923F011092E9
:1011800042011092410110924401109243011092C9
:10119000460110924501D2CF8091470190914801BC
:1011A0000E941517883C910540F680913C01E82F7C
:1011B000F0E0EE0FFF1FE35CFE4F118300838F5FB3
:1011C00080933C01C0E0BACF0C9438050C943905EB
:1011D000CF93DF9385B7806885BF85B7806885BF6B
:1011E000AFE1B1E044E251E0C1E0D0E08D91E82F01
:1011F000E295EF70F0E061A18F709E0101C0220FB7
:101200008A95EAF7922F9095962391A382A1822B3B
:1012100082A34A175B0751F7A3E1B1E061E070E0F8
:101220008D91E82FE295EF70F0E041A18F709B0166
:1012300001C0220F8A95EAF7922F9095942391A3EB
:1012400082A1822B82A381E0AF31B80749F71092C7
:1012500055011092540110924B0110924A011092C4
:1012600057011092560110924D0110924C011092AC
:1012700059011092580110924F0110924E01109294
:101280005B0110925A01109251011092500110927C
:101290005D0110925C011092530110925201DF9196
:1012A000CF910C9483064F925F927F928F929F9280
:1012B000AF92BF92CF92DF92EF92FF920F931F9364
:1012C000CF93DF939AE4492E91E0592E2FE1E22E3D
:1012D00021E0F22E01E010E099249394E201A9901C
:1012E000B9902E01DE011E921E92F70181917F01BD
:1012F000E82FE295EF70F0E091A18F70980101C0A6
:10130000220F8A95EAF7892F822B81A382A1822E50
:101310008094882182A380EA8A95F1F783E1C82E20
:1013200081E0D82E90E080E0E60179916E01472FB0
:1013300042954F7050E0EA0178A04D915C91119771
:101340007F70E80102C0CC0FDD1F7A95E2F7BE0185
:10135000672109F072C0B801082E02C0660F771F1E
:101360000A94E2F7462B572B11965C934E93019605
:101370008C309105C9F681A1882281A282A1282BF7
:1013800022A38D919C91A816B90641F090925E011E
:101390000E9409179093600180935F01D4E54D1678
:1013A000D1E05D0609F09ACF80915E01882391F12A
:1013B00080915F01909160010E941517069750F18E
:1013C00080914A0190914B01909355018093540173
:1013D00080914C0190914D0190935701809356015B
:1013E00080914E0190914F01909359018093580143
:1013F000809150019091510190935B0180935A012B
:10140000809152019091530190935D0180935C0112
:1014100010925E010E94850681E0DF91CF911F91BD
:101420000F91FF90EF90DF90CF90BF90AF909F9083
:101430008F907F905F904F90089570E060E092CF22
:10144000E82FF0E0EE0FFF1FEC5AFE4F80819181F4
:101450000895089590936601809365010895E09141
:101460006501F0916601309721F00190F081E02D47
:10147000099480E00895E0916501F091660130974C
:1014800021F00280F381E02D09940895E091650137
:10149000F0916601309721F00480F581E02D0994E8
:1014A000089520916301309164012817390771F084
:1014B0009093640180936301E0916501F09166016E
:1014C000309721F00680F781E02D0994089520914E
:1014D0006101309162012817390771F09093620120
:1014E00080936101E0916501F0916601309721F0F0
:1014F0000084F185E02D0994089508950C947D0AE7
:101500000E9400170E94E8080C94CA175F926F921D
:101510007F928F929F92AF92BF92CF92DF92EF9283
:10152000FF920F931F93CF93DF9300D000D00F92C1
:10153000CDB7DEB70E94530998E6A92E91E0B92EE7
:1015400010E000E088248394912C502E802F0E947C
:10155000200A7C01F501C190D1905F01C816D9061F
:1015600009F45DC08091000281FD0E94290A90E08B
:1015700080E0CE24DF243401082E02C0660C771CE4
:101580000A94E2F7960126213721232B09F442C061
:1015900089835A82E620F72081E0EF2809F480E071
:1015A0008B830E9409178160782F9D838C834981EA
:1015B0005A816B818D810E943B0B000F111FF80136
:1015C000E859FE4F80819181682679267182608278
:1015D0000E94771A0E942F0A909167018917B1F132
:1015E0000E942F0A809367010F900F900F900F9029
:1015F0000F90DF91CF911F910F91FF90EF90DF90AF
:10160000CF90BF90AF909F908F907F906F905F90A2
:101610000C94890601968C30910509F0ACCF0F5FD0
:101620001F4F0530110509F090CF8FEF89838A8312
:101630001B820E9409178160782F9D838C834981CA
:101640005A816B818D810E943B0BC2CF0F900F900E
:101650000F900F900F90DF91CF911F910F91FF90FE
:10166000EF90DF90CF90BF90AF909F908F907F9042
:101670006F905F900895CF93DF93CDB7DEB72B9730
:101680000FB6F894DEBF0FBECDBF4F835887698772
:101690007A878B871E8285E0FE013796DE011196E0
:1016A00001900D928A95E1F749815A816B817C8185
:1016B0008D819E812B960FB6F894DEBF0FBECDBFF5
:1016C000DF91CF910C94B211882309F4D8C08238ED
:1016D00071F40E942F0A81FDD2C089E30E94571540
:1016E0000E94211689E30E9494150C9421168338D8
:1016F00059F40E942F0A80FDC2C083E50E9457154D
:101700000E94211683E5EFCF843859F40E942F0AF6
:1017100082FDB5C087E40E9457150E94211687E418
:10172000E2CF9CEF980F913A18F40E945715DDCF45
:1017300090E2980F983050F4877091E001C0990FB3
:101740008A95EAF7892F0E94D815CFCF9BE5980F8D
:10175000933070F4853A31F0863A39F083E890E0BE
:101760000C94510A81E890E0FBCF82E890E0F8CF3A
:1017700098E5980F953108F082C0883A09F440C086
:10178000893A09F440C08A3A09F440C08B3A09F416
:1017900040C08C3A09F440C08B3B09F440C08C3BFC
:1017A00009F440C08D3A09F440C0803B09F440C0C0
:1017B0008E3A09F440C08F3A09F440C0813B09F4E5
:1017C00040C0823B09F440C0833B09F440C0843BE5
:1017D00009F440C0853B09F440C0863B09F440C091
:1017E000873B09F440C0883B09F440C0893B09F4B9
:1017F00040C08A3B09F440C090E080E00C94670A46
:1018000082EE90E0FBCF89EE90E0F8CF8AEE90E098
:10181000F5CF85EB90E0F2CF86EB90E0EFCF83EB56
:1018200090E0ECCF84EB90E0E9CF87EB90E0E6CF5F
:101830008CEC90E0E3CF8DEC90E0E0CF83E891E09A
:10184000DDCF8AE891E0DACF82E991E0D7CF84E971
:1018500091E0D4CF81E292E0D1CF83E292E0CECF8B
:1018600084E292E0CBCF85E292E0C8CF86E292E0BC
:10187000C5CF87E292E0C2CF8AE292E0BFCF08955F
:10188000882309F44BC0823871F40E942F0A81FF2B
:1018900045C089E30E9457150E94211689E30E94E2
:1018A00094150C942116833859F40E942F0A80FF56
:1018B00035C083E50E9457150E94211683E5EFCFBE
:1018C000843859F40E942F0A82FF28C087E40E94BE
:1018D00057150E94211687E4E2CF9CEF980F913AAA
:1018E000F0F290E2980F983050F4877091E001C0C8
:1018F000990F8A95EAF7892F0E94DE15D2CF9BE5D2
:10190000980F933020F490E080E00C94510A885AAC
:10191000853120F490E080E00C94670A08958823D4
:1019200021F00E94D8150C9421160895882321F0E7
:101930000E94DE150C94211608958F929F92AF920B
:10194000BF92DF92EF92FF920F931F93CF93DF939B
:1019500000D000D00F92CDB7DEB77C016D837983C4
:10196000FC01058102950F70128111110E94F7157B
:101970000E945015D82E882371F01123A1F08D817B
:10198000805E883080F082E00E943A150E945015F7
:1019900091E0D82ED926E981E295EF70F0E0EE5083
:1019A000FC4D0C948E23D12CF6CF09810F70F98158
:1019B000F07F11F00295007F1123B1F0002361F058
:1019C0008D81805E883018F02D81211109C0802F13
:1019D0000E94D8150E9421168D810E94640B15C0AB
:1019E000802F0E94E915F6CF8D810E94400C0023C4
:1019F00061F08D81805E883018F03D81311129C001
:101A0000802F0E94DE150E942116DD2009F4D3C12B
:101A10000E942D1580FDCFC1F70112820E9427156B
:101A20000E947013C7010E94EC0E0E9427150F90B0
:101A30000F900F900F900F90DF91CF911F910F910A
:101A4000FF90EF90DF90BF90AF909F908F900C949D
:101A50009213802F0E94EF15D6CF49814F70B42E7C
:101A60005981507F503219F0B29480EFB8228D81A5
:101A7000882369F0813029F1112369F1002359F09D
:101A8000F701858180FFA8CF8F70858304C0112363
:101A900061F0011104C08B2D0E948F0CB6CF8B2DED
:101AA0000130D1F70E940B16B0CF011106C00E9481
:101AB0000E168B2D0E94960CA8CF013009F4A5CFED
:101AC000F6CF112321F0063008F09FCFE4CF053088
:101AD00008F09BCFEECF002361F38D810E94400C74
:101AE00094CF898186958695837069F0813009F05D
:101AF0008CCF8D8199819370111102C090E080E0AC
:101B00000E94670A82CF8D8199819370111102C062
:101B100090E080E00E94510A78CF8D81112329F056
:101B20000E9485190E946C1A70CF0E94ED19FACF9D
:101B30008981837009F05FC0111167CF2D812295D3
:101B400026952770220F220F8D818F7090E0B0E0D4
:101B5000A0E04C015D01022E04C0880C991CAA1C57
:101B6000BB1C0A94D2F7FD8160E070E0CB01F4FF6A
:101B70000FC06FE070E080E090E004C0660F771F58
:101B8000881F991F2A95D2F760957095809590953A
:101B900029812695269523702D832230B1F023309C
:101BA00019F19B01AC01282939294A295B2929838C
:101BB0003A834B835C833D8169817A818B819C81EF
:101BC0003130B1F00E94FD1220CF9B01AC012829D9
:101BD00039294A295B2929833A834B835C83CA01CB
:101BE000B9010E94271311CF0E94FD12C501B40153
:101BF0000E94D3120ACF8695112311F0898181703A
:101C0000882309F402CF2D81229526952770220F73
:101C1000220F8D818F7090E0B0E0A0E04C015D015B
:101C2000022E04C0880C991CAA1CBB1C0A94D2F773
:101C30003D8160E070E0CB0134FF0FC06FE070E0E9
:101C400080E090E004C0660F771F881F991F2A95D7
:101C5000D2F7609570958095909549814695469507
:101C600043704D834230B1F0433019F19B01AC0118
:101C7000282939294A295B2929833A834B835C83A4
:101C80003D8169817A818B819C813130B1F00E94E4
:101C90000314BBCE9B01AC01282939294A295B29B1
:101CA00029833A834B835C83CA01B9010E942D14B6
:101CB000ACCE0E940314C501B4010E94D913A5CE75
:101CC0003D81323F09F447C080F4303F79F1313F24
:101CD000D9F1832F805E8031D0F0112309F456C0F2
:101CE00001117ACE89818F7133C04D81433FD1F18B
:101CF000443F99F7112309F43FC089818F7189838B
:101D00000E94701363E089810E9431157ECE5D814F
:101D10005F705D8389818F71112321F00E947013A0
:101D20008D81BACE0E9492138D81C4CE112341F0D1
:101D3000053008F06ACE89818F710E94B71365CE95
:101D4000063008F062CEF7CF89818F71112339F008
:101D50000E9470135ACE89818F711123C9F30E949A
:101D6000921353CE112329F089818F710E945B1346
:101D70004CCE0E94511349CE81E00E943A150230A8
:101D800008F443CE82E00E943A153FCE0111A5CE61
:101D900089818F71E4CF49814F706D81C7010E94A5
:101DA00035050E944C1231CE49814F706D81C701BB
:101DB0000E948B062ACE0F900F900F900F900F90DD
:101DC000DF91CF911F910F91FF90EF90DF90BF9027
:101DD000AF909F908F9008950F931F93CF93DF93B1
:101DE000EC018B819C81892B29F088819981892341
:101DF0008F3F29F4DF91CF911F910F910895CE016C
:101E00000E9454058823B1F3688179818A810E94F8
:101E1000FD148C010E9457140E94C812B801CE0113
:101E2000DF91CF911F910F910C949D0C0E94F7159B
:101E30000E9408160E94CA150E9421160E945D1B6E
:101E40000E946C1A90E080E00E94510A90E080E0CD
:101E50000C94670A0E94E6150C94160F0E94F11468
:101E6000282F892F82958F70903C80F48A30B0F4AF
:101E7000843020F4823090F480E008958630E1F7D9
:101E800081E0203E88F0213FB9F70EC08C3011F080
:101E90008F3091F793FB882780F9089581E0203FE8
:101EA00039F018F4203E40F70895243F29F7FCCF7D
:101EB0000895CF93DF9300D000D00F92CDB7DEB757
:101EC0000F900F900F900F900F90DF91CF9108958A
:101ED000CF93DF9300D000D000D0CDB7DEB72696E9
:101EE0000FB6F894DEBF0FBECDBFDF91CF9108953E
:101EF0001F93CF93DF93E091730116E080917401FB
:101F00008E1304C0DF91CF911F910895CE2FD0E0A2
:101F10001E9FF0011124EB58FE4F408151816281D8
:101F20007381848195810E94680FFE013196E7706C
:101F3000E5CF4091A5015091A6016091A701709154
:101F4000A8018091A9019091AA010C94680F1F9398
:101F5000CF93DF938091AA01807FC1F48091A70184
:101F60008823A1F080917301C09174016091A50153
:101F70007091A6014091A8015091A901D62FD723B5
:101F8000DA01A095B09516E0C81304C0DF91CF9197
:101F90001F91089590E04115510511F0DF3F31F494
:101FA00001968770F1CF2A0F3B1F17C0189FF001D1
:101FB000199FF00D1124EB58FE4F21812713F0CF0C
:101FC00020812613EDCF22812111EACF2381348194
:101FD0002417350740F3241B350B283C310500F747
:101FE0002091AA012F7020612093AA0126E0289F4A
:101FF000F001299FF00D1124E658FE4F80818F706B
:102000008061808385EA91E00E94EC0EDF91CF91A0
:102010001F910C94780F9F92AF92BF92CF92DF9254
:10202000EF92FF920F931F93CF93DF93CDB7DEB75D
:102030002B970FB6F894DEBF0FBECDBF8C0185E0A5
:10204000F801DE01179601900D928A95E1F7D8010B
:102050004C9111965C9111971296EC901297809189
:10206000A8019091A901009709F46BC12091A501E5
:102070003091A601632F62236F3F09F462C113966A
:10208000CD90DC909090A701992009F4F8C0C81673
:10209000D90608F43FC0F601E81BF90BCF01FF2475
:1020A000F394883C910508F0F12C85EAA82E81E094
:1020B000B82E8091AA01982F907FFF2009F4B7C015
:1020C000911180C0FE2C35132AC0241328C0E110C2
:1020D00026C08F7080618093AA010E94990FC5016C
:1020E0000E94EC0E8091AA01D80115968C938F2D39
:1020F0002B960FB6F894DEBF0FBECDBFDF91CF9108
:102100001F910F91FF90EF90DF90CF90BF90AF9015
:102110009F900895809590958C0D9D1DC0CFCD28E2
:1021200029F0842F85238F3F09F019C180E0B82F53
:10213000B170DB2EE09173012091740136E080FDD7
:102140001CC0EE20A1F28091AA0181608093AA01B7
:10215000F12CCDCF8E2F90E03E9FF0011124EB5853
:10216000FE4F6181651306C06081641303C0628104
:102170006E11E7CFFC013196E770E213EBCF4F838E
:1021800058878F8198850E94F114292F22952F70EE
:10219000903260F0225F2F70223078F49F7051F0FF
:1021A000F8019581907F31F4D12C0AC09F7011F015
:1021B0008823D1F3805E8830B8F3C8010E94EC0E0A
:1021C000FD2C95CF351306C0241304C0D801EE2092
:1021D00009F47BC04F8358878F8198850E942E0F0A
:1021E000882309F4B8C0EE2009F4B5C08091AA0193
:1021F000803270F02091A5013091A6013A832983A5
:102200001B82DD82CC828E83CE0101960E94EC0E71
:1022100086E0F801A5EAB1E001900D928A95E1F718
:102220000E94A70F0E94990FFF24F39460CF911191
:1022300013C07C2DDB86CA866E2D8B850E94590FBC
:1022400085EA91E00E94EC0E86E0F50111928A95F4
:10225000E9F70E94990F4BCF3513BCCF2413BACFA7
:10226000E110B8CFD80115968C93C8010E94EC0EEE
:1022700086E0F50111928A95E9F7F92C38CFC81656
:10228000D90688F1B601681B790BCB01F12C883C8B
:10229000910508F047C0FE2CEE2009F45CC0351310
:1022A00030C024132EC08091AA0180FD21C0982F38
:1022B000907FF1F0D80115968C931597903F39F0E7
:1022C000982F907F905F8F70892B15968C93C80103
:1022D0000E94EC0E86E0F801A5EAB1E001900D92B3
:1022E0008A95E1F7B6CF809590958C0D9D1DCECF48
:1022F00086E0F801A5EAB1E001900D928A95E1F738
:10230000F6CE4F8358878F8198850E942E0F8111BA
:102310007FCF8091AA0181608093AA01C8010E94A9
:10232000EC0EE5CE7C2DDB86CA866E2D8B850E9459
:10233000590F86E0E5EAF1E0DF011D928A95E9F7A1
:1023400088CFEE2041F04F8358878F8198850E9477
:102350002E0F81115DCFC8010E94EC0E65CF81E088
:102360008E25E5CE1F93CF93DF93CDB7DEB72C97A5
:102370000FB6F894DEBF0FBECDBF4F835887698775
:102380007A878B879C87CE0107960E940B10882343
:1023900069F08A859B85892B39F04F815885842F78
:1023A00085238F3F09F071C016E05FC086E0FE0113
:1023B0003796DE01119601900D928A95E1F78A8594
:1023C0009B85892B89F388859F8189238F3F61F3C2
:1023D0002091740130E0C9010196877099274091DE
:1023E00073014817190671F40E942A0F10927401A4
:1023F0001092730186E0E5EAF1E0DF011D928A9513
:10240000E9F7D2CF96E0929FD001939FB00D1124AF
:10241000AB58BE4FFE01319601900D929A95E1F7AF
:10242000809374010E94780FBFCF819FC001112457
:102430008B589E4F0E940B108823E9F0E0917301A6
:102440001E9FF0011124EB58FE4F408151816281A3
:102450007381848195810E94680F8091730190E05F
:1024600001968770992780937301809173019091F1
:1024700074018913DACF2C960FB6F894DEBF0FBE25
:10248000CDBFDF91CF911F91089569857A858B85A6
:102490009C850E94680F88CFEF92FF920F931F9345
:1024A000CF93DF938C01892B89F0F12CEE24E394F8
:1024B000E8012196F8018491843709F457C0A0F40B
:1024C000823009F43EC048F48130D1F0DF91CF91E1
:1024D0001F910F91FF90EF9008959CEF980F903708
:1024E000A8F70E94640B0AC0853709F44CC09CE72A
:1024F000980F903758F78F770E94400C8E0116C0C6
:102500000E5F1F4FFE01849190E2980F983060F4A7
:102510008770FE2D01C0FF0F8A95EAF78F2F0E946A
:10252000FA150E94211602C00E94640B8F2D815063
:1025300008F4BECFEFE9FFE03197F1F700C00000EB
:10254000F6CF0E5F1F4FFE01849190E2980F9830F6
:1025500050F48770FE2D01C0FF0F8A95EAF78F2F88
:102560000E940016DECF0E94400CE0CF0E5F1F4F8E
:10257000FE01C491C150D0F28FE99FE00197F1F7BD
:1025800000C00000F7CF0E5F1F4FFE01F490CECFCA
:1025900008956093D7017093D8018093D9019093E7
:1025A000DA010C94160FCF93DF9300D000D0CDB793
:1025B000DEB769837A838B839C838091D701909166
:1025C000D801A091D901B091DA0129813A814B81DA
:1025D0005C81822B932BA42BB52B8093D7019093F6
:1025E000D801A093D901B093DA010F900F900F900A
:1025F0000F90DF91CF910C94160FCF93DF9300D003
:1026000000D0CDB7DEB769837A838B839C838091BA
:10261000D7019091D801A091D901B091DA01298117
:102620003A814B815C8182239323A423B523809339
:10263000D7019093D801A093D901B093DA010F90FC
:102640000F900F900F90DF91CF910C94160FCF93B6
:10265000DF9300D000D0CDB7DEB769837A838B8358
:102660009C838091D7019091D801A091D901B0911C
:10267000DA0129813A814B815C8182279327A42743
:10268000B5278093D7019093D801A093D901B09337
:10269000DA010F900F900F900F90DF91CF910C9473
:1026A000160F1092D3011092D4011092D5011092FE
:1026B000D6010C94160F41E050E060E070E004C0D9
:1026C000440F551F661F771F8A95D2F74093D30199
:1026D0005093D4016093D5017093D6010C94160FDA
:1026E000282F81E090E0A0E0B0E004C0880F991F9F
:1026F000AA1FBB1F2A95D2F74091D3015091D40154
:102700006091D5017091D601842B952BA62BB72B08
:102710008093D3019093D401A093D501B093D601B7
:102720000C94160F41E050E060E070E004C0440FEC
:10273000551F661F771F8A95D2F740955095609573
:1027400070958091D3019091D401A091D501B09161
:10275000D60184239523A623B7238093D301909396
:10276000D401A093D501B093D6010C94160F282F55
:1027700081E090E0A0E0B0E004C0880F991FAA1F9C
:10278000BB1F2A95D2F74091D3015091D40160919B
:10279000D5017091D60184279527A627B727809366
:1027A000D3019093D401A093D501B093D6010C949A
:1027B000160FCF93DF9300D000D0CDB7DEB769837B
:1027C0007A838B839C838091D3019091D401A091D3
:1027D000D501B091D60129813A814B815C81822B50
:1027E000932BA42BB52B8093D3019093D401A0936A
:1027F000D501B093D6010F900F900F900F90DF91FD
:10280000CF910C94160FCF93DF9300D000D0CDB7AB
:10281000DEB769837A838B839C838091D301909107
:10282000D401A091D501B091D60129813A814B8183
:102830005C8182239323A423B5238093D3019093B7
:10284000D401A093D501B093D6010F900F900F90B3
:102850000F90DF91CF910C94160FCF93DF9300D0A0
:1028600000D0CDB7DEB769837A838B839C83809158
:10287000D3019091D401A091D501B091D6012981C5
:102880003A814B815C8182279327A427B5278093C7
:10289000D3019093D401A093D501B093D6010F90AA
:1028A0000F900F900F90DF91CF910C94160F089519
:1028B000E82F2CE0929FE00D11248E2F877041E0CD
:1028C00001C0440F8A95EAF7E695E695E69585E01E
:1028D000E89FF0011124E555FE4F30E020E070E064
:1028E0005191DF011197CB01022E02C09695879579
:1028F0000A94E2F7817081958527842385278C933C
:102900002F5F3F4F2530310559F70895E82F2CE010
:10291000929FE00D11249E2F9770E695E695E6951F
:1029200085E0E89FF0011124E555FE4F50E040E0BE
:1029300080E0219130E0092E02C0369527950A9457
:10294000E2F721703327042E01C0220F0A94EAF720
:10295000822B4F5F5F4F4530510559F70895BF9265
:10296000CF92DF92EF92FF920F931F93CF93DF935B
:102970008C01C090D301D090D401E090D501F090AB
:10298000D6018091D7019091D801A091D901B09141
:10299000DA01C82AD92AEA2AFB2ACFE1D0E0BC2EE4
:1029A000D701C6010C2E04C0B695A79597958795BB
:1029B0000A94D2F780FD0EC0219788F7B12C8B2D99
:1029C000DF91CF911F910F91FF90EF90DF90CF900B
:1029D000BF900895B8018C2F0E94A806019761F35B
:1029E000EECFCF93DF93D82FC92F0E94AF146D2F56
:1029F0007C2FDF91CF910C94A8061F93CF93DF9388
:102A0000162FD72F90917201992339F0862F972F87
:102A1000DF91CF911F910C94F114882391F0862FB0
:102A2000972F0E94AF14C82F682F812F9D2F0E94CF
:102A30005814612F7D2F8C2FDF91CF911F910C9413
:102A4000A806862F972F0E948614C82FF2CF809158
:102A5000DB0185958595859508958091DB018770CB
:102A6000089598E0899F90011124622B6093DB0107
:102A70000C9470139091DB01809589238093DB0186
:102A8000282F277061F4282F082E000C330B921783
:102A9000130629F08595859585950C9492130895D4
:102AA0009091DB01977081E009F480E008959091A6
:102AB00012019923E1F09091310297FF18C0E82F9D
:102AC000E695E695E695EF3139F1209100013091D8
:102AD0000101E20FF32FF11D877021E030E001C00A
:102AE000220F8A95EAF78181822B818308952091B4
:102AF000000130910101F90132969FEF40E05191C0
:102B0000851751F09F3F19F4511101C0942F4F5F69
:102B10004E31A9F79F3F09F40895290F311D97FD04
:102B20003A95F9018283089590911201992301F158
:102B30009091310297FF1CC0E82FE695E695E69547
:102B4000EF3139F12091000130910101E20FF32FB3
:102B5000F11D877021E030E0A90102C0440F551F2C
:102B60008A95E2F7CA01809591818923818308952E
:102B70002091000130910101F9013296205E3F4F12
:102B80009191891303C0DF0111971C92E217F3079B
:102B9000B9F7089581E090E0E0910001F091010122
:102BA000E80FF91F1082019680329105A9F7089568
:102BB0009091FF01982B9093FF010895982F909585
:102BC0008091FF0189238093FF0108951092FF01F6
:102BD00008959091FE01982B9093FE010895982FEF
:102BE00090958091FE0189238093FE0108951092B3
:102BF000FE0108959091FD01982B9093FD01089599
:102C0000982F90958091FD0189238093FD0108956F
:102C10001092FD0108958093DC0108951092DC016B
:102C200008952091000130910101F9013196205E53
:102C30003F4F80E0919191118F5FE217F307D1F739
:102C40000895E0910001F09101018091FF018083DE
:102C5000E0910001F091010180819091FE01892BAA
:102C60008083E0910001F091010180819091FD014C
:102C7000892B80839091DC01992361F0E091000120
:102C8000F09101018081892B80830E9411168111AE
:102C90001092DC0180910001909101010C943B0A9B
:102CA0006DEE7EEF90E080E00E94C82360E082E05D
:102CB00090E00E94B62360E083E090E00E94B6239B
:102CC00060E084E090E00E94B62360E085E090E060
:102CD0000C94B62390E080E00E94B0239C0181E038
:102CE0002D3E3E4F09F080E0089582E090E00C9484
:102CF000A823682F82E090E00C94B62383E090E054
:102D00000C94A823682F83E090E00C94B62384E011
:102D100090E00C94A823682F84E090E00C94B623F4
:102D200080913702843039F11092010288E190E0FD
:102D300020E40FB6F894A895809360000FBE20930E
:102D4000600080E00E94890683B7817F846083BF32
:102D500083B7816083BF7894889583B78E7F83BF64
:102D60000FB6F894A8958091600088618093600008
:102D7000109260000FBE089508950895CF930E94A9
:102D8000BC160E9453090E94BD16C0E08C2F0E9401
:102D9000200A892B31F4CF5FC530C1F780E0CF9195
:102DA000089581E0FCCF0E942A0F0E942F0A0C9404
:102DB00089061F921FB61F9211248F939F93AF9382
:102DC000BF9380910102811113C080912D029091D7
:102DD0002E02A0912F02B09130024196A11DB11D8B
:102DE00080932D0290932E02A0932F02B093300275
:102DF000BF91AF919F918F911F901FBE1F9018950B
:102E000082E084BD93E095BD9AEF97BD80936E00FC
:102E100008952FB7F89480912D0290912E02A091E1
:102E20002F02B09130022FBF0895CF92DF92EF9220
:102E3000FF929C014FB7F89480912D0290912E0241
:102E4000A0912F02B09130024FBF6C017D01EE24A2
:102E5000FF24A90170E060E0C416D506E606F70677
:102E600038F0821B930BFF90EF90DF90CF90089586
:102E70000197F7CF1F921FB61F9211248F939F9334
:102E8000AF93BF9380912D0290912E02A0912F02BB
:102E9000B09130020196A11DB11D80932D02909337
:102EA0002E02A0932F02B0933002BF91AF919F9159
:102EB0008F911F901FBE1F9018950E94511FF8946C
:102EC0002FEF87EA91E6215080409040E1F700C063
:102ED000000087E090EBDC01809340029093410278
:102EE000A0934202B093430288E19CE00FB6F894AD
:102EF000A895809360000FBE90936000FFCFAF92C3
:102F0000BF92CF92DF92EF92FF920F931F93CF93D6
:102F1000C0E0AA24A394B12CE82EF12C8C2F0E949F
:102F2000200A6C0110E000E0C501002E02C0880FED
:102F3000991F0A94E2F78C219D21892B99F0602F2B
:102F40007C2F80E00E948C06E816F90659F481E097
:102F5000CF911F910F91FF90EF90DF90CF90BF9096
:102F6000AF9008950F5F1F4F0C301105E9F6CF5F4A
:102F7000C530A1F680E0ECCFCF93C82F8CE20E9441
:102F80007F17882321F08C2FCF910C947F1780E03E
:102F9000CF910895CF93DF9300D000D0CDB7DEB7A7
:102FA0000E946A16811102C00E94501695E699830C
:102FB00008C00E9453098FE39CE90197F1F700C014
:102FC0000000A981A150A983A111F3CF89E20E9439
:102FD000BC17811110C18AE20E94BC1781110E94A6
:102FE000501685E00E94BC1781110E945D170E9457
:102FF00075168093000287E00E94BC17882371F049
:103000008BE10E94BC17882309F4D1C09091000283
:10301000892F8D7F91FF8260809300028091000252
:103020000E9479160E94871690E090933202809356
:10303000310280EE0E94BC17882341F0909131024A
:10304000892F8E7F90FF81608093310289E30E94F7
:10305000BC17882341F090913102892F8D7F91FF19
:1030600082608093310282EE0E94BC17882341F077
:1030700090913102892F8B7F92FF8460809331027F
:1030800086EE0E94BC17882341F090913102892F6F
:10309000877F93FF88608093310283EE0E94BC1784
:1030A000882341F090913102892F8F7E94FF8061B7
:1030B0008093310285E30E94BC17882341F09091F0
:1030C0003102892F8F7D95FF80628093310281E3E9
:1030D0000E94BC17882341F090913102892F8F7B89
:1030E00096FF80648093310281E10E94BC1788239F
:1030F00041F090913102892F97FB87F98058809396
:103100003102809131020E948B1687E20E94BC1727
:1031100089838EE10E94BC17882319F0B981B260BF
:10312000B9838FE10E94BC17882319F0298124609C
:10313000298380E20E94BC17882319F03981386006
:10314000398381E20E94BC17882319F049814061CC
:10315000498382E20E94BC17882319F0598150628A
:10316000598383E20E94BC17882319F08981806407
:10317000898384E20E94BC178823B1F19981906809
:10318000998389810E9482163981232F30E050E093
:1031900040E029833A834B835C83CA01B9010F90D5
:1031A0000F900F900F90DF91CF910C94C9128EE089
:1031B0000E94BC17882339F090910002892F8B7FE1
:1031C00092FF846029CF80E10E94BC179091000299
:1031D000882329F0892F877F93FF88601DCF892F4F
:1031E0008E7F90FF816018CFA981A111CACF0E9464
:1031F0007E16282FCBCF0F900F900F900F90DF915E
:10320000CF9108958091040280FF12C06091050162
:1032100085E0689FB0011124759567957595679550
:1032200060387105A8F561157105A1F1862F089523
:1032300081FF09C06091050185E0689FB0011124FC
:1032400075956795EDCF6091050182FD0AC080916B
:1032500005028823D1F0909104016091050189173E
:1032600028F085E0689FB0011124DACF869FB00175
:10327000112485E0869F9001879F300D1124692FCE
:1032800070E0C9010E947A23CBCF65E070E0CECF19
:103290008FE7089581E008958091040280FF0CC0BB
:1032A0006091030170E07595679575956795611557
:1032B000710549F1862F089581FF06C060910301D1
:1032C00070E075956795F3CF6091030182FD0BC0A7
:1032D000909105029923A1F0609102018091030170
:1032E000961738F0682F70E06038710500F38FE7AB
:1032F0000895899FC001112470E00E947A23F4CFC1
:1033000061E070E0D7CF81E00895803F31F40E9402
:1033100002198195809308020895813F19F40E9453
:103320000219F8CF823F31F40E94021981958093EF
:1033300007020895833F19F40E940219F8CF893FCC
:1033400029F40E944C198093090208958A3F21F4C0
:103350000E944C198195F7CF8B3F31F40E944C1994
:10336000819580930A0208958C3F19F40E944C19AC
:10337000F8CF843F31F48091060281608093060289
:103380000895853F21F4809106028260F7CF863F41
:1033900021F4809106028460F1CF873F21F480916F
:1033A00006028860EBCF883F21F48091060280619D
:1033B000E5CF8D3F31F48091040281608093040257
:1033C00008958E3F21F4809104028260F7CF8F3FF1
:1033D000B9F7809104028460F1CF90910702803F99
:1033E00041F48091080287FD10920802992371F040
:1033F0000895813F29F4809108021816ACF3F6CFA6
:10340000823F81F497FFF2CF109207028091080269
:1034100090910902892B90910A02892B49F7109209
:1034200005020895833F19F4191674F3DFCF893F1D
:1034300039F4809109021816CCF610920902D6CF01
:103440008A3F29F48091090287FFD0CFF6CF8B3FC6
:1034500039F480910A0287FFC9CF10920A02C6CFC1
:103460008C3F29F480910A021816BCF3BFCF843F29
:1034700031F4809106028E7F80930602B7CF853F9C
:1034800021F4809106028D7FF7CF863F21F4809151
:1034900006028B7FF1CF873F21F480910602877F60
:1034A000EBCF883F21F4809106028F7EE5CF8D3FE0
:1034B00031F4809104028E7F8093040297CF8E3F77
:1034C00021F4809104028D7FF7CF8F3F09F08ECFDA
:1034D000809104028B7FF0CF86E092E00E94460A42
:1034E0000E940917909303028093020208951F938C
:1034F000CF93DF9300D000D000D0CDB7DEB780915E
:103500000202909103020E941517AC0180910502FE
:103510002091060130E0811106C0209107019AE058
:10352000299F900111244217530788F02091070228
:10353000A0910802A98310910902B0910A02BE83EA
:1035400021110FC09A2F912B9B2B09F0B2C0269608
:103550000FB6F894DEBF0FBECDBFDF91CF911F91A4
:1035600008958F3F19F08F5F80930502121624F49F
:103570000E940219809307028091070287FF05C00D
:103580000E9402198195809307022981121624F462
:103590000E940219809308028091080287FF05C0EB
:1035A0000E94021981958093080280910702882366
:1035B00009F455C0309108023D83332309F44FC00C
:1035C000282F880F330B440B550B29833A834B83E9
:1035D0005C83CA01B9010E94812223E333E343E300
:1035E0005FE369837A838B839C8369817A818B8192
:1035F0009C810E94E52269837A838B839C83698105
:103600007A818B819C810E944922609307028D817F
:10361000082E000C990BAA0BBB0B89839A83AB83F2
:10362000BC83BC01CD010E94812223E333E343E349
:103630005FE369837A838B839C8369817A818B8141
:103640009C810E94E52269837A838B839C836981B4
:103650007A818B819C810E94492260930802111615
:1036600024F40E944C19809309028091090287FF7B
:1036700005C00E944C198195809309029E811916FC
:1036800024F40E944C1980930A0280910A0287FF59
:1036900005C00E944C19819580930A0226960FB6A8
:1036A000F894DEBF0FBECDBFDF91CF911F910C9478
:1036B0006C1A8F3F09F057CF68CF85E0E6E0F2E063
:1036C000DF011D928A95E9F710920502109204021B
:1036D000089580912B020895CF93DF9300D00F922D
:1036E000CDB7DEB720913702243019F523E02983C6
:1036F0008A839B832093E9008FEF9091E8008150AB
:1037000095FD06C095ED9A95F1F700008111F5CF72
:103710008091E80085FF0DC050E040E063E070E07C
:10372000CE0101960E94C91D8091E8008E7780939A
:10373000E8000F900F900F90DF91CF910895CF93F5
:10374000DF9300D00F92CDB7DEB79C018091370296
:10375000843031F582E08983205831093B832A8304
:1037600083E08093E9008FEF9091E800815095FD10
:1037700006C095ED9A95F1F700008111F5CF809183
:10378000E80085FF0DC050E040E063E070E0CE014E
:1037900001960E94C91D8091E8008E778093E80011
:1037A0000F900F900F90DF91CF91089520913702E5
:1037B0002430F1F422E02093E9002FEF3091E8006B
:1037C000215035FD06C035ED3A95F1F70000211185
:1037D000F5CF2091E80025FF0BC050E040E065E008
:1037E00070E00E94C91D8091E8008E778093E80008
:1037F0000895CF93DF93D82FC92F8091370284305B
:10380000F1F4909112019923E9F09091310297FF20
:1038100019C08093E9008FEF9091E800815095FDE9
:1038200006C095E19A95F1F700008111F5CF8091DE
:10383000E80050E040E060E270E085FD1AC0DF91F2
:10384000CF91089581E08093E9008FEF9091E80097
:10385000815095FD06C095ED9A95F1F70000811114
:10386000F5CF8091E80085FFEACF50E040E068E0C6
:1038700070E08D2F9C2F0E94C91D8091E8008E77EB
:103880008093E80080E2ED2FFC2FABE0B2E00190E6
:103890000D928A95E1F7D3CF80913602811109C04C
:1038A0000E94511F0E94AE1F8091E20084608093AD
:1038B000E2000895109236020895089508950C9438
:1038C000D31642E061EC81E00E94CD1E42E061EC43
:1038D00082E00E94CD1E42E061EC83E00E94CD1E9A
:1038E00042E261EC84E00C94CD1E80913902893073
:1038F00089F148F4823009F494C0833009F44FC050
:10390000813041F008958A3009F47BC08B3009F48E
:1039100061C0089580913802813A09F03FC08091DA
:10392000E800877F8093E80080913C0290913D02FF
:10393000892B61F460E28BE092E070E00E94181E37
:103940008091E8008B778093E800089560E090E034
:1039500080E0F3CF80913802813201F580913C0202
:1039600090913D02009711F00397C1F48091E80017
:10397000877F8093E8008091E80082FF0BC08091F0
:10398000F10080932B028091E8008B778093E80010
:103990000C94011F809137028111EDCF0895809121
:1039A0003802813AD9F780913C0290913D02892BEF
:1039B000A9F78091E800877F8093E8008091E80074
:1039C00080FFFCCF809112018093F1008091E8008C
:1039D0008E77DCCF80913802813201F780913C02F2
:1039E00090913D02892BD1F68091E800877F8093EA
:1039F000E8000E94011F80913A02809312010C940A
:103A00002A0F80913802813249F68091E800877F41
:103A10008093E8000E94011F80913B0280932C025A
:103A2000089580913802813A09F0B8CF8091E8007A
:103A3000877F8093E8008091E80080FFFCCF809131
:103A40002C02C2CF84B7877F84BF0FB6F894A895A5
:103A500080916000886180936000109260000FBECA
:103A600080E880936100109261000E947E0A0E94AB
:103A7000511F0E94AE1F8091E20084608093E2009B
:103A800078940E942E220E94800A88E091E00E9491
:103A90002A0A80913702853019F00E94860AF9CFF0
:103AA0000E94901680913502882399F30E94BE16D9
:103AB000882379F30E94B31DECCF9C01DA01892F92
:103AC000992783309105C1F068F48130910509F49C
:103AD00045C0029761F48DE690E02CE538E02D9327
:103AE0003C93089581329105E1F0829739F190E09D
:103AF00080E030E020E0F3CFC9019927213059F070
:103B00008230910559F0E8E5F8E0892B81F784913E
:103B100090E09F01E4CFE0E4F8E0F9CFECE2F8E0D8
:103B2000F6CF643020F7E62FF0E0EE0FFF1FE05DE8
:103B3000FE4F2081318189E090E0D1CF6430B8F62A
:103B400070E0FB01EE0FFF1FE85DFE4F2081318129
:103B50006C5D7E4FFB01808190E0C1CF82E190E0FF
:103B600029EC38E0BCCF80E189BD82E189BD09B490
:103B700000FEFDCF8091D8008F7D8093D80080918A
:103B8000E00082608093E0008091E00081FDFCCF46
:103B90000895AF92BF92CF92DF92FF920F931F933F
:103BA000CF93DF936C01EB018A010E94201FF82E56
:103BB000811123C00115110539F0F801808191812F
:103BC000C81BD90BC80ED91EB12CA12C2097A9F067
:103BD0008091E80085FD22C08091E8008E77809377
:103BE000E80001151105A1F0F80180819181A80E6E
:103BF000B91EB182A08285E0F82E8F2DDF91CF9182
:103C00001F910F91FF90DF90CF90BF90AF900895DC
:103C10000E94201F8823D1F2F82EEFCFF601819168
:103C20006F018093F1002197FFEFAF1ABF0ACECF4B
:103C3000FC01CB0120913E0230913F02261737074D
:103C400090F0009729F42091E8002E772093E80067
:103C500040E0009751F4411108C08091E80082FFD4
:103C600031C080E00895C901F3CF209137022223AB
:103C7000A9F12530A9F12091E80023FD2DC0209164
:103C8000E80022FDEACF2091E80020FFE2CF30914A
:103C9000F3002091F200009719F02830310558F018
:103CA00041E02830310509F040E02091E8002E770E
:103CB0002093E800CECF41914093F10001972F5F10
:103CC0003F4FE9CF80913702882341F0853041F0A2
:103CD0008091E80083FFC1CF81E0089582E00895DC
:103CE00083E00895FC01CB0120913E0230913F0218
:103CF0002617370790F0009729F42091E8002E77D7
:103D00002093E80040E0009751F4411108C08091F1
:103D1000E80082FF32C080E00895C901F3CF20910E
:103D200037022223B1F12530B1F12091E80023FDC3
:103D30002EC02091E80022FDEACF2091E80020FF6C
:103D4000E2CF3091F3002091F200009719F0283073
:103D5000310558F041E02830310509F040E020916C
:103D6000E8002E772093E800CECF44914093F100F5
:103D7000319601972F5F3F4FE8CF8091370288231C
:103D800041F0853041F08091E80083FFC0CF81E0B1
:103D9000089582E0089583E00895982F973028F0E1
:103DA0008F708093E90081E008959093E900242FBB
:103DB000762F50E0981731F07091EC002091ED00D3
:103DC0005091F00021FD02C09F5FE8CF3091EB00E1
:103DD0003E7F3093EB003091ED003D7F3093ED005E
:103DE0003091EB0031603093EB007093EC00209346
:103DF000ED005093F0002091EE0027FDE5CF80E02C
:103E000008958091380287FF13C08091E80082FFF7
:103E100006C08091E8008B778093E80004C0809111
:103E200037028111F2CF0895809137028823D9F3A8
:103E30008091E80080FFF8CF8091E8008E77ECCF8A
:103E40002091E4003091E50095E6A9012091EC0075
:103E5000822F817020FF06C08091E80080FF06C09D
:103E600080E008952091E80022FD1AC08091370279
:103E7000882389F0853089F08091EB0085FD0FC0A3
:103E80002091E4003091E50042175307F9F2915078
:103E9000E1F684E0089582E0089583E0089581E0EA
:103EA00008950E94BF1F0E94C71FE0EEF0E08081CE
:103EB00081608083E8EDF0E080818F77808319BC9A
:103EC000A7EDB0E08C918E7F8C9380818F7E808374
:103ED0001092360208950F931F93CF93DF930E94A1
:103EE000BF1F0E94C71FC8EDD0E088818F778883ED
:103EF00088818068888388818F7D888319BC10922F
:103F0000370210923302109235021092340200EE02
:103F100010E0F80180818B7F8083888181608883B5
:103F200042E060E080E00E94CD1EE1EEF0E08081A2
:103F30008E7F8083E2EEF0E08081816080838081EB
:103F400088608083F80180818E7F80838881806192
:103F50008883DF91CF911F910F910895E8EDF0E0F4
:103F600080818F7E8083E7EDF0E0808181608083B7
:103F700084E082BF81E0809336020C946B1FE8EDF1
:103F8000F0E080818E7F80831092E200089510928D
:103F9000DA001092E10008951F920F920FB60F926F
:103FA00011242F933F934F935F936F937F938F933E
:103FB0009F93AF93BF93EF93FF938091E10082FFB4
:103FC0000BC08091E20082FF07C08091E1008B7FEF
:103FD0008093E1000E942D228091DA0080FF19C0B9
:103FE0008091D80080FF15C08091DA008E7F809389
:103FF000DA008091D90080FF94C080E189BD82E120
:1040000089BD09B400FEFDCF81E0809337020E9494
:104010004C1C8091E10080FF19C08091E20080FF7C
:1040200015C08091E2008E7F8093E2008091E200D3
:1040300080618093E2008091D80080628093D800F4
:1040400019BC85E0809337020E945E1C8091E100DC
:1040500084FF29C08091E20084FF25C080E189BDF2
:1040600082E189BD09B400FEFDCF8091D8008F7D2B
:104070008093D8008091E1008F7E8093E100809151
:10408000E2008F7E8093E2008091E2008160809365
:10409000E20080913302882309F449C084E08093D0
:1040A00037020E945F1C8091E10083FF29C080914C
:1040B000E20083FF25C08091E100877F8093E100CB
:1040C00082E080933702109233028091E1008E7F6C
:1040D0008093E1008091E2008E7F8093E2008091E6
:1040E000E20080618093E20042E060E080E00E94B4
:1040F000CD1E8091F00088608093F0000E945D1CCE
:10410000FF91EF91BF91AF919F918F917F916F91AF
:104110005F914F913F912F910F900FBE0F901F9085
:10412000189519BC109237020E945A1C72CF8091C8
:10413000E30087FD02C081E0B2CF83E0B0CF1F92E1
:104140000F920FB60F9211242F933F934F935F93CB
:104150006F937F938F939F93AF93BF93CF93DF938F
:10416000EF93FF93D091E900DF708091EC00C82FAE
:10417000C17080FDC0E81092E9008091F000877F57
:104180008093F00078940E94E3201092E9008091DF
:10419000F00088608093F000CD2BCF70C093E900D1
:1041A000FF91EF91DF91CF91BF91AF919F918F914F
:1041B0007F916F915F914F913F912F910F900FBE23
:1041C0000F901F9018951F93CF93DF93CDB7DEB755
:1041D000AA970FB6F894DEBF0FBECDBF88E392E07A
:1041E000FC0101962091F100208322E080349207A7
:1041F000B9F70E94751C8091E80083FF16C1809179
:104200003802909139029A3008F00FC1E92FF0E09E
:10421000EE5FFB4D0C948E23803881F0823809F0DC
:1042200004C180913C028F708093E9008091EB0083
:1042300085FB882780F91092E90006C0809134023E
:1042400090913502911182609091E800977F909350
:10425000E8008093F1001092F1008091E8008E77E1
:10426000E0C0882309F4CEC0823009F0DEC080911E
:104270003A028111D1C080913C028F7009F4D5C0FF
:104280008093E9002091EB0020FFC6C0933031F409
:104290008091EB0080628093EB00BEC09091EB00B8
:1042A00090619093EB0021E030E001C0220F8A95ED
:1042B000EAF72093EA001092EA008091EB00886010
:1042C000EACF8111B2C010913A021F778091E300CA
:1042D0008078812B8093E3008091E800877F809332
:1042E000E8000E94011F8091E80080FFFCCF8091D0
:1042F000E30080688093E30082E0111183E0809303
:10430000370293C08058823008F08FC080913A0203
:1043100090913B028C3D23E09207A1F583E08A83D4
:104320008AE289834FB7F894DE01139620E03EE0DD
:1043300051E2E32FF0E050935700E49120FF03C0D7
:10434000E295EF703F5FEF708E2F90E0EA30C0F0A3
:10435000C7968D939D932F5F243159F74FBF80915E
:10436000E800877F8093E8006AE270E0CE01019662
:104370000E94181E8091E8008B778093E80055C05A
:10438000C096E7CFAE014F5F5F4F60913C020E9445
:104390005D1DBC01892B09F448C08091E800877F2E
:1043A0008093E80089819A810E94721EE3CF803851
:1043B000E1F58091E800877F8093E80080913302E7
:1043C0008093F1004ACF811130C090913A0292302F
:1043D00060F58091E800877F8093E8009093330236
:1043E0000E94011F80913302882311F084E005C0F0
:1043F0008091E30087FDFACF81E0809337020E942D
:10440000611C13C080913A02813079F481E09330CD
:1044100009F080E0809335021092E9008091E80075
:10442000877F8093E8000E94011F8091E80083FF4E
:104430000AC08091E800877F8093E8008091EB00BC
:1044400080628093EB00AA960FB6F894DEBF0FBE91
:10445000CDBFDF91CF911F9108950895CF938091A3
:1044600037028823A1F0C091E900CF709091EC0051
:10447000892F817090FD80E8C82B1092E90080910F
:10448000E80083FD0E94E320CF70C093E900CF9144
:1044900008950E9450226894B1110C94DF2208956F
:1044A0000E94C42288F09F5798F0B92F9927B751DE
:1044B000B0F0E1F0660F771F881F991F1AF0BA95C8
:1044C000C9F714C0B13091F00E94DE22B1E0089526
:1044D0000C94DE22672F782F8827B85F39F0B93F18
:1044E000CCF3869577956795B395D9F73EF490957B
:1044F0008095709561957F4F8F4F9F4F0895E894F9
:1045000009C097FB3EF490958095709561957F4F1B
:104510008F4F9F4F9923A9F0F92F96E9BB279395C9
:10452000F695879577956795B795F111F8CFFAF4D9
:10453000BB0F11F460FF1BC06F5F7F4F8F4F9F4F0A
:1045400016C0882311F096E911C0772321F09EE868
:10455000872F762F05C0662371F096E8862F70E0CE
:1045600060E02AF09A95660F771F881FDAF7880FA8
:104570009695879597F9089557FD9058440F551FC4
:1045800059F05F3F71F04795880F97FB991F61F0D5
:104590009F3F79F087950895121613061406551F4C
:1045A000F2CF4695F1DF08C0161617061806991FB8
:1045B000F1CF86957105610508940895E894BB27AD
:1045C00066277727CB0197F908950E94F8220C946B
:1045D00069230E945B2338F00E94622320F0952318
:1045E00011F00C9452230C94582311240C94DF22C4
:1045F0000E94BC2270F3959FC1F3950F50E0551FA8
:10460000629FF001729FBB27F00DB11D639FAA2727
:10461000F00DB11DAA1F649F6627B00DA11D661F76
:10462000829F2227B00DA11D621F739FB00DA11D97
:10463000621F839FA00D611D221F749F3327A00D51
:10464000611D231F849F600D211D822F762F6A2FED
:1046500011249F5750409AF0F1F088234AF0EE0F52
:10466000FF1FBB1F661F771F881F91505040A9F77F
:104670009E3F510580F00C9452230C94DF225F3F43
:10468000E4F3983ED4F3869577956795B795F795BB
:10469000E7959F5FC1F7FE2B880F911D9695879533
:1046A00097F9089597F99F6780E870E060E00895B2
:1046B0009FEF80EC089500240A941616170618063A
:1046C0000906089500240A94121613061406050616
:1046D0000895092E0394000C11F4882352F0BB0FA7
:1046E00040F4BF2B11F460FF04C06F5F7F4F8F4F0A
:1046F0009F4F089597FB072E16F4009407D077FD7F
:1047000009D00E94942307FC05D03EF49095819532
:104710009F4F0895709561957F4F0895EE0FFF1F8D
:104720000590F491E02D0994AA1BBB1B51E107C031
:10473000AA1FBB1FA617B70710F0A61BB70B881F31
:10474000991F5A95A9F780959095BC01CD010895C0
:10475000F999FECF92BD81BDF89A992780B5089549
:10476000A8E1B0E042E050E00C94D023262FF99964
:10477000FECF92BD81BDF89A019700B4021639F0C0
:104780001FBA20BD0FB6F894FA9AF99A0FBE089591
:104790000196272F0E94B7230C94B623DC01CB018E
:1047A000FC01F999FECF06C0F2BDE1BDF89A319641
:1047B00000B40D9241505040B8F70895F894FFCFDF
:1047C000F4050006040608060C0610061406180672
:1047D0001C062006240628062C0630063406380659
:1047E0003C064006D50CD50C2D0D2D0D710D8D0DF3
:1047F000050D050D980D050D600E600ECB0E050D17
:10480000050DD40E0C2131211522312115226121F3
:0848100082211522D721E321CA
:10481800DD012808140A321E691BF91BD61B9F1BD1
:104828006C1B0193929190946697C6343536323357
:1048380031F7F6F5404D363997094A091409DB086E
:084848006E088708A008B908FA
:00000001FF
